{"abi":[{"type":"constructor","inputs":[],"stateMutability":"nonpayable"},{"type":"function","name":"getAgent","inputs":[{"name":"agentId","type":"uint256","internalType":"uint256"}],"outputs":[{"name":"agentId_","type":"uint256","internalType":"uint256"},{"name":"agentDomain_","type":"string","internalType":"string"},{"name":"agentAddress_","type":"address","internalType":"address"}],"stateMutability":"view"},{"type":"function","name":"newAgent","inputs":[{"name":"agentDomain","type":"string","internalType":"string"},{"name":"agentAddress","type":"address","internalType":"address"}],"outputs":[{"name":"agentId_","type":"uint256","internalType":"uint256"}],"stateMutability":"nonpayable"},{"type":"function","name":"resolveAgentByAddress","inputs":[{"name":"agentAddress","type":"address","internalType":"address"}],"outputs":[{"name":"agentId_","type":"uint256","internalType":"uint256"},{"name":"agentDomain_","type":"string","internalType":"string"},{"name":"agentAddress_","type":"address","internalType":"address"}],"stateMutability":"view"},{"type":"function","name":"resolveAgentByDomain","inputs":[{"name":"agentDomain","type":"string","internalType":"string"}],"outputs":[{"name":"agentId_","type":"uint256","internalType":"uint256"},{"name":"agentDomain_","type":"string","internalType":"string"},{"name":"agentAddress_","type":"address","internalType":"address"}],"stateMutability":"view"},{"type":"function","name":"updateAgent","inputs":[{"name":"agentId","type":"uint256","internalType":"uint256"},{"name":"newAgentDomain","type":"string","internalType":"string"},{"name":"newAgentAddress","type":"address","internalType":"address"}],"outputs":[{"name":"success_","type":"bool","internalType":"bool"}],"stateMutability":"nonpayable"},{"type":"event","name":"AgentRegistered","inputs":[{"name":"agentId","type":"uint256","indexed":true,"internalType":"uint256"},{"name":"agentDomain","type":"string","indexed":true,"internalType":"string"},{"name":"agentAddress","type":"address","indexed":true,"internalType":"address"}],"anonymous":false},{"type":"event","name":"AgentUpdated","inputs":[{"name":"agentId","type":"uint256","indexed":true,"internalType":"uint256"},{"name":"previousAgentDomain","type":"string","indexed":false,"internalType":"string"},{"name":"newAgentDomain","type":"string","indexed":true,"internalType":"string"},{"name":"previousAgentAddress","type":"address","indexed":false,"internalType":"address"},{"name":"newAgentAddress","type":"address","indexed":true,"internalType":"address"}],"anonymous":false},{"type":"error","name":"AddressAlreadyRegistered","inputs":[{"name":"agentAddress","type":"address","internalType":"address"}]},{"type":"error","name":"AgentNotFound","inputs":[{"name":"agentId","type":"uint256","internalType":"uint256"}]},{"type":"error","name":"DomainAlreadyRegistered","inputs":[{"name":"domain","type":"string","internalType":"string"}]},{"type":"error","name":"InvalidAddress","inputs":[]},{"type":"error","name":"InvalidDomain","inputs":[]},{"type":"error","name":"Unauthorized","inputs":[{"name":"caller","type":"address","internalType":"address"},{"name":"expected","type":"address","internalType":"address"}]}],"bytecode":{"object":"0x6080604052348015600e575f5ffd5b505f5f8190555061189d806100225f395ff3fe608060405234801561000f575f5ffd5b5060043610610055575f3560e01c80632de5aaf7146100595780633bfbbad71461008b5780634750d0fa146100bb57806388282bc8146100eb578063b2bdcc701461011d575b5f5ffd5b610073600480360381019061006e9190610ec3565b61014f565b60405161008293929190610fac565b60405180910390f35b6100a560048036038101906100a09190611073565b610298565b6040516100b291906110fe565b60405180910390f35b6100d560048036038101906100d09190611117565b61087d565b6040516100e29190611174565b60405180910390f35b6101056004803603810190610100919061118d565b610c2d565b60405161011493929190610fac565b60405180910390f35b610137600480360381019061013291906111b8565b610d69565b60405161014693929190610fac565b60405180910390f35b5f60605f5f60015f8681526020019081526020015f2090505f73ffffffffffffffffffffffffffffffffffffffff16816001015f9054906101000a900473ffffffffffffffffffffffffffffffffffffffff1673ffffffffffffffffffffffffffffffffffffffff16036101da575f60405180602001604052805f8152505f93509350935050610291565b849350805f0180546101eb90611230565b80601f016020809104026020016040519081016040528092919081815260200182805461021790611230565b80156102625780601f1061023957610100808354040283529160200191610262565b820191905f5260205f20905b81548152906001019060200180831161024557829003601f168201915b50505050509250806001015f9054906101000a900473ffffffffffffffffffffffffffffffffffffffff169150505b9193909250565b5f5f60015f8781526020019081526020015f2090505f73ffffffffffffffffffffffffffffffffffffffff16816001015f9054906101000a900473ffffffffffffffffffffffffffffffffffffffff1673ffffffffffffffffffffffffffffffffffffffff160361034057856040517f0ede97590000000000000000000000000000000000000000000000000000000081526004016103379190611174565b60405180910390fd5b806001015f9054906101000a900473ffffffffffffffffffffffffffffffffffffffff1673ffffffffffffffffffffffffffffffffffffffff163373ffffffffffffffffffffffffffffffffffffffff16146103f85733816001015f9054906101000a900473ffffffffffffffffffffffffffffffffffffffff166040517f295a81c10000000000000000000000000000000000000000000000000000000081526004016103ef929190611260565b60405180910390fd5b5f858590501415801561042b57505f600286866040516104199291906112c3565b90815260200160405180910390205414155b80156104655750805f016040516104429190611377565b6040518091039020858560405161045a9291906113b1565b604051809103902014155b156104a95784846040517f50cb29b30000000000000000000000000000000000000000000000000000000081526004016104a09291906113f5565b60405180910390fd5b5f73ffffffffffffffffffffffffffffffffffffffff168373ffffffffffffffffffffffffffffffffffffffff161415801561052257505f60035f8573ffffffffffffffffffffffffffffffffffffffff1673ffffffffffffffffffffffffffffffffffffffff1681526020019081526020015f205414155b801561056b57508560035f8573ffffffffffffffffffffffffffffffffffffffff1673ffffffffffffffffffffffffffffffffffffffff1681526020019081526020015f205414155b156105ad57826040517fef3c800b0000000000000000000000000000000000000000000000000000000081526004016105a49190611417565b60405180910390fd5b5f815f0180546105bc90611230565b80601f01602080910402602001604051908101604052809291908181526020018280546105e890611230565b80156106335780601f1061060a57610100808354040283529160200191610633565b820191905f5260205f20905b81548152906001019060200180831161061657829003601f168201915b505050505090505f826001015f9054906101000a900473ffffffffffffffffffffffffffffffffffffffff1690505f87879050146106c7576002835f0160405161067d91906114c2565b90815260200160405180910390205f90558686845f0191826106a092919061169d565b5087600288886040516106b49291906112c3565b9081526020016040518091039020819055505b5f73ffffffffffffffffffffffffffffffffffffffff168573ffffffffffffffffffffffffffffffffffffffff16146107e25760035f846001015f9054906101000a900473ffffffffffffffffffffffffffffffffffffffff1673ffffffffffffffffffffffffffffffffffffffff1673ffffffffffffffffffffffffffffffffffffffff1681526020019081526020015f205f905584836001015f6101000a81548173ffffffffffffffffffffffffffffffffffffffff021916908373ffffffffffffffffffffffffffffffffffffffff1602179055508760035f8773ffffffffffffffffffffffffffffffffffffffff1673ffffffffffffffffffffffffffffffffffffffff1681526020019081526020015f20819055505b60019350826001015f9054906101000a900473ffffffffffffffffffffffffffffffffffffffff1673ffffffffffffffffffffffffffffffffffffffff16835f0160405161083091906114c2565b6040518091039020897fe9e7c6570c3acc64b4b8fbf1b06ccbe46bd2a5e5e147e9b960f58844e9a104ca858560405161086a92919061176a565b60405180910390a4505050949350505050565b5f5f84849050036108ba576040517feb12798200000000000000000000000000000000000000000000000000000000815260040160405180910390fd5b5f73ffffffffffffffffffffffffffffffffffffffff168273ffffffffffffffffffffffffffffffffffffffff160361091f576040517fe6c4247b00000000000000000000000000000000000000000000000000000000815260040160405180910390fd5b5f600285856040516109329291906112c3565b908152602001604051809103902054146109855783836040517f50cb29b300000000000000000000000000000000000000000000000000000000815260040161097c9291906113f5565b60405180910390fd5b5f60035f8473ffffffffffffffffffffffffffffffffffffffff1673ffffffffffffffffffffffffffffffffffffffff1681526020019081526020015f205414610a0657816040517fef3c800b0000000000000000000000000000000000000000000000000000000081526004016109fd9190611417565b60405180910390fd5b8173ffffffffffffffffffffffffffffffffffffffff163373ffffffffffffffffffffffffffffffffffffffff1614610a785733826040517f295a81c1000000000000000000000000000000000000000000000000000000008152600401610a6f929190611260565b60405180910390fd5b5f5f81546001019190508190559050604051806040016040528085858080601f0160208091040260200160405190810160405280939291908181526020018383808284375f81840152601f19601f8201169050808301925050505050505081526020018373ffffffffffffffffffffffffffffffffffffffff1681525060015f8381526020019081526020015f205f820151815f019081610b199190611798565b506020820151816001015f6101000a81548173ffffffffffffffffffffffffffffffffffffffff021916908373ffffffffffffffffffffffffffffffffffffffff1602179055509050508060028585604051610b769291906112c3565b9081526020016040518091039020819055508060035f8473ffffffffffffffffffffffffffffffffffffffff1673ffffffffffffffffffffffffffffffffffffffff1681526020019081526020015f20819055508173ffffffffffffffffffffffffffffffffffffffff168484604051610bf19291906112c3565b6040518091039020827faef1fcdf962a03943b677ae3b92ef1b34c972aeef794ed6e9ba5f599b461883b60405160405180910390a49392505050565b5f60605f5f60035f8673ffffffffffffffffffffffffffffffffffffffff1673ffffffffffffffffffffffffffffffffffffffff1681526020019081526020015f205490505f8103610c96575f60405180602001604052805f8152505f93509350935050610d62565b5f60015f8381526020019081526020015f209050819450805f018054610cbb90611230565b80601f0160208091040260200160405190810160405280929190818152602001828054610ce790611230565b8015610d325780601f10610d0957610100808354040283529160200191610d32565b820191905f5260205f20905b815481529060010190602001808311610d1557829003601f168201915b50505050509350806001015f9054906101000a900473ffffffffffffffffffffffffffffffffffffffff16925050505b9193909250565b5f60605f5f60028686604051610d809291906112c3565b90815260200160405180910390205490505f8103610db5575f60405180602001604052805f8152505f93509350935050610e81565b5f60015f8381526020019081526020015f209050819450805f018054610dda90611230565b80601f0160208091040260200160405190810160405280929190818152602001828054610e0690611230565b8015610e515780601f10610e2857610100808354040283529160200191610e51565b820191905f5260205f20905b815481529060010190602001808311610e3457829003601f168201915b50505050509350806001015f9054906101000a900473ffffffffffffffffffffffffffffffffffffffff16925050505b9250925092565b5f5ffd5b5f5ffd5b5f819050919050565b610ea281610e90565b8114610eac575f5ffd5b50565b5f81359050610ebd81610e99565b92915050565b5f60208284031215610ed857610ed7610e88565b5b5f610ee584828501610eaf565b91505092915050565b610ef781610e90565b82525050565b5f81519050919050565b5f82825260208201905092915050565b8281835e5f83830152505050565b5f601f19601f8301169050919050565b5f610f3f82610efd565b610f498185610f07565b9350610f59818560208601610f17565b610f6281610f25565b840191505092915050565b5f73ffffffffffffffffffffffffffffffffffffffff82169050919050565b5f610f9682610f6d565b9050919050565b610fa681610f8c565b82525050565b5f606082019050610fbf5f830186610eee565b8181036020830152610fd18185610f35565b9050610fe06040830184610f9d565b949350505050565b5f5ffd5b5f5ffd5b5f5ffd5b5f5f83601f84011261100957611008610fe8565b5b8235905067ffffffffffffffff81111561102657611025610fec565b5b60208301915083600182028301111561104257611041610ff0565b5b9250929050565b61105281610f8c565b811461105c575f5ffd5b50565b5f8135905061106d81611049565b92915050565b5f5f5f5f6060858703121561108b5761108a610e88565b5b5f61109887828801610eaf565b945050602085013567ffffffffffffffff8111156110b9576110b8610e8c565b5b6110c587828801610ff4565b935093505060406110d88782880161105f565b91505092959194509250565b5f8115159050919050565b6110f8816110e4565b82525050565b5f6020820190506111115f8301846110ef565b92915050565b5f5f5f6040848603121561112e5761112d610e88565b5b5f84013567ffffffffffffffff81111561114b5761114a610e8c565b5b61115786828701610ff4565b9350935050602061116a8682870161105f565b9150509250925092565b5f6020820190506111875f830184610eee565b92915050565b5f602082840312156111a2576111a1610e88565b5b5f6111af8482850161105f565b91505092915050565b5f5f602083850312156111ce576111cd610e88565b5b5f83013567ffffffffffffffff8111156111eb576111ea610e8c565b5b6111f785828601610ff4565b92509250509250929050565b7f4e487b71000000000000000000000000000000000000000000000000000000005f52602260045260245ffd5b5f600282049050600182168061124757607f821691505b60208210810361125a57611259611203565b5b50919050565b5f6040820190506112735f830185610f9d565b6112806020830184610f9d565b9392505050565b5f81905092915050565b828183375f83830152505050565b5f6112aa8385611287565b93506112b7838584611291565b82840190509392505050565b5f6112cf82848661129f565b91508190509392505050565b5f81905092915050565b5f819050815f5260205f209050919050565b5f815461130381611230565b61130d81866112db565b9450600182165f8114611327576001811461133c5761136e565b60ff198316865281151582028601935061136e565b611345856112e5565b5f5b8381101561136657815481890152600182019150602081019050611347565b838801955050505b50505092915050565b5f61138282846112f7565b915081905092915050565b5f61139883856112db565b93506113a5838584611291565b82840190509392505050565b5f6113bd82848661138d565b91508190509392505050565b5f6113d48385610f07565b93506113e1838584611291565b6113ea83610f25565b840190509392505050565b5f6020820190508181035f83015261140e8184866113c9565b90509392505050565b5f60208201905061142a5f830184610f9d565b92915050565b5f819050815f5260205f209050919050565b5f815461144e81611230565b6114588186611287565b9450600182165f81146114725760018114611487576114b9565b60ff19831686528115158202860193506114b9565b61149085611430565b5f5b838110156114b157815481890152600182019150602081019050611492565b838801955050505b50505092915050565b5f6114cd8284611442565b915081905092915050565b5f82905092915050565b7f4e487b71000000000000000000000000000000000000000000000000000000005f52604160045260245ffd5b5f6020601f8301049050919050565b5f82821b905092915050565b5f600883026115597fffffffffffffffffffffffffffffffffffffffffffffffffffffffffffffffff8261151e565b611563868361151e565b95508019841693508086168417925050509392505050565b5f819050919050565b5f61159e61159961159484610e90565b61157b565b610e90565b9050919050565b5f819050919050565b6115b783611584565b6115cb6115c3826115a5565b84845461152a565b825550505050565b5f5f905090565b6115e26115d3565b6115ed8184846115ae565b505050565b5b81811015611610576116055f826115da565b6001810190506115f3565b5050565b601f8211156116555761162681611430565b61162f8461150f565b8101602085101561163e578190505b61165261164a8561150f565b8301826115f2565b50505b505050565b5f82821c905092915050565b5f6116755f198460080261165a565b1980831691505092915050565b5f61168d8383611666565b9150826002028217905092915050565b6116a783836114d8565b67ffffffffffffffff8111156116c0576116bf6114e2565b5b6116ca8254611230565b6116d5828285611614565b5f601f831160018114611702575f84156116f0578287013590505b6116fa8582611682565b865550611761565b601f19841661171086611430565b5f5b8281101561173757848901358255600182019150602085019450602081019050611712565b868310156117545784890135611750601f891682611666565b8355505b6001600288020188555050505b50505050505050565b5f6040820190508181035f8301526117828185610f35565b90506117916020830184610f9d565b9392505050565b6117a182610efd565b67ffffffffffffffff8111156117ba576117b96114e2565b5b6117c48254611230565b6117cf828285611614565b5f60209050601f831160018114611800575f84156117ee578287015190505b6117f88582611682565b86555061185f565b601f19841661180e86611430565b5f5b8281101561183557848901518255600182019150602085019450602081019050611810565b86831015611852578489015161184e601f891682611666565b8355505b6001600288020188555050505b50505050505056fea2646970667358221220e81fc45034fbb3b98ec44fc4dbeed6ee3e1450b895533d6f28cc0126cda0446b64736f6c634300081e0033","linkReferences":{}},"methodIdentifiers":{"getAgent(uint256)":"2de5aaf7","newAgent(string,address)":"4750d0fa","resolveAgentByAddress(address)":"88282bc8","resolveAgentByDomain(string)":"b2bdcc70","updateAgent(uint256,string,address)":"3bfbbad7"},"id":19}