{"abi":[{"type":"constructor","inputs":[{"name":"identityRegistryAddress","type":"address","internalType":"address"}],"stateMutability":"nonpayable"},{"type":"function","name":"acceptFeedback","inputs":[{"name":"agentClientId","type":"uint256","internalType":"uint256"},{"name":"agentServerId","type":"uint256","internalType":"uint256"}],"outputs":[],"stateMutability":"nonpayable"},{"type":"function","name":"identityRegistry","inputs":[],"outputs":[{"name":"","type":"address","internalType":"contract IIdentityRegistry"}],"stateMutability":"view"},{"type":"event","name":"AuthFeedback","inputs":[{"name":"agentClientId","type":"uint256","indexed":true,"internalType":"uint256"},{"name":"agentServerId","type":"uint256","indexed":true,"internalType":"uint256"},{"name":"feedbackAuthId","type":"bytes32","indexed":true,"internalType":"bytes32"}],"anonymous":false},{"type":"error","name":"AgentNotFound","inputs":[{"name":"agentId","type":"uint256","internalType":"uint256"}]},{"type":"error","name":"InvalidIdentityRegistryAddress","inputs":[]},{"type":"error","name":"Unauthorized","inputs":[{"name":"caller","type":"address","internalType":"address"},{"name":"expected","type":"address","internalType":"address"}]}],"bytecode":{"object":"0x60a060405234801561000f575f5ffd5b5060405161099538038061099583398181016040528101906100319190610134565b5f73ffffffffffffffffffffffffffffffffffffffff168173ffffffffffffffffffffffffffffffffffffffff1603610096576040517f28123ecf00000000000000000000000000000000000000000000000000000000815260040160405180910390fd5b5f5f819055508073ffffffffffffffffffffffffffffffffffffffff1660808173ffffffffffffffffffffffffffffffffffffffff16815250505061015f565b5f5ffd5b5f73ffffffffffffffffffffffffffffffffffffffff82169050919050565b5f610103826100da565b9050919050565b610113816100f9565b811461011d575f5ffd5b50565b5f8151905061012e8161010a565b92915050565b5f60208284031215610149576101486100d6565b5b5f61015684828501610120565b91505092915050565b6080516108126101835f395f8181607401528181609901526101a901526108125ff3fe608060405234801561000f575f5ffd5b5060043610610034575f3560e01c8063134e18f4146100385780638524d98814610056575b5f5ffd5b610040610072565b60405161004d9190610429565b60405180910390f35b610070600480360381019061006b9190610486565b610096565b005b7f000000000000000000000000000000000000000000000000000000000000000081565b5f7f000000000000000000000000000000000000000000000000000000000000000073ffffffffffffffffffffffffffffffffffffffff16632de5aaf7846040518263ffffffff1660e01b81526004016100f091906104d3565b5f60405180830381865afa15801561010a573d5f5f3e3d5ffd5b505050506040513d5f823e3d601f19601f820116820180604052508101906101329190610677565b925050505f73ffffffffffffffffffffffffffffffffffffffff168173ffffffffffffffffffffffffffffffffffffffff16036101a657826040517f0ede975900000000000000000000000000000000000000000000000000000000815260040161019d91906104d3565b60405180910390fd5b5f7f000000000000000000000000000000000000000000000000000000000000000073ffffffffffffffffffffffffffffffffffffffff16632de5aaf7846040518263ffffffff1660e01b815260040161020091906104d3565b5f60405180830381865afa15801561021a573d5f5f3e3d5ffd5b505050506040513d5f823e3d601f19601f820116820180604052508101906102429190610677565b925050505f73ffffffffffffffffffffffffffffffffffffffff168173ffffffffffffffffffffffffffffffffffffffff16036102b657826040517f0ede97590000000000000000000000000000000000000000000000000000000081526004016102ad91906104d3565b60405180910390fd5b8073ffffffffffffffffffffffffffffffffffffffff163373ffffffffffffffffffffffffffffffffffffffff16146103285733816040517f295a81c100000000000000000000000000000000000000000000000000000000815260040161031f9291906106f2565b60405180910390fd5b5f610333858561036b565b90508084867f875b92862bcb577e19434ed5238b2e5a1b58bd8606a26d1a414edf00eee18fd860405160405180910390a45050505050565b5f463084845f5f815460010191905081905560405160200161039195949392919061077e565b60405160208183030381529060405280519060200120905092915050565b5f73ffffffffffffffffffffffffffffffffffffffff82169050919050565b5f819050919050565b5f6103f16103ec6103e7846103af565b6103ce565b6103af565b9050919050565b5f610402826103d7565b9050919050565b5f610413826103f8565b9050919050565b61042381610409565b82525050565b5f60208201905061043c5f83018461041a565b92915050565b5f604051905090565b5f5ffd5b5f5ffd5b5f819050919050565b61046581610453565b811461046f575f5ffd5b50565b5f813590506104808161045c565b92915050565b5f5f6040838503121561049c5761049b61044b565b5b5f6104a985828601610472565b92505060206104ba85828601610472565b9150509250929050565b6104cd81610453565b82525050565b5f6020820190506104e65f8301846104c4565b92915050565b5f815190506104fa8161045c565b92915050565b5f5ffd5b5f5ffd5b5f601f19601f8301169050919050565b7f4e487b71000000000000000000000000000000000000000000000000000000005f52604160045260245ffd5b61054e82610508565b810181811067ffffffffffffffff8211171561056d5761056c610518565b5b80604052505050565b5f61057f610442565b905061058b8282610545565b919050565b5f67ffffffffffffffff8211156105aa576105a9610518565b5b6105b382610508565b9050602081019050919050565b8281835e5f83830152505050565b5f6105e06105db84610590565b610576565b9050828152602081018484840111156105fc576105fb610504565b5b6106078482856105c0565b509392505050565b5f82601f83011261062357610622610500565b5b81516106338482602086016105ce565b91505092915050565b5f610646826103af565b9050919050565b6106568161063c565b8114610660575f5ffd5b50565b5f815190506106718161064d565b92915050565b5f5f5f6060848603121561068e5761068d61044b565b5b5f61069b868287016104ec565b935050602084015167ffffffffffffffff8111156106bc576106bb61044f565b5b6106c88682870161060f565b92505060406106d986828701610663565b9150509250925092565b6106ec8161063c565b82525050565b5f6040820190506107055f8301856106e3565b61071260208301846106e3565b9392505050565b5f819050919050565b61073361072e82610453565b610719565b82525050565b5f8160601b9050919050565b5f61074f82610739565b9050919050565b5f61076082610745565b9050919050565b6107786107738261063c565b610756565b82525050565b5f6107898288610722565b6020820191506107998287610767565b6014820191506107a98286610722565b6020820191506107b98285610722565b6020820191506107c98284610722565b602082019150819050969550505050505056fea26469706673582212202c180612e056b3a7e4d4d5b680e93eef03231e5fe4fce079388dbafee67a70b564736f6c634300081e0033","linkReferences":{}},"methodIdentifiers":{"acceptFeedback(uint256,uint256)":"8524d988","identityRegistry()":"134e18f4"},"id":20}