{"abi":[{"type":"constructor","inputs":[{"name":"identityRegistryAddress","type":"address","internalType":"address"},{"name":"requestTtl","type":"uint256","internalType":"uint256"}],"stateMutability":"nonpayable"},{"type":"function","name":"identityRegistry","inputs":[],"outputs":[{"name":"","type":"address","internalType":"contract IIdentityRegistry"}],"stateMutability":"view"},{"type":"function","name":"ttl","inputs":[],"outputs":[{"name":"","type":"uint256","internalType":"uint256"}],"stateMutability":"view"},{"type":"function","name":"validationRequest","inputs":[{"name":"agentValidatorId","type":"uint256","internalType":"uint256"},{"name":"agentServerId","type":"uint256","internalType":"uint256"},{"name":"dataHash","type":"bytes32","internalType":"bytes32"}],"outputs":[],"stateMutability":"nonpayable"},{"type":"function","name":"validationResponse","inputs":[{"name":"dataHash","type":"bytes32","internalType":"bytes32"},{"name":"response","type":"uint8","internalType":"uint8"}],"outputs":[],"stateMutability":"nonpayable"},{"type":"event","name":"ValidationRequest","inputs":[{"name":"agentValidatorId","type":"uint256","indexed":true,"internalType":"uint256"},{"name":"agentServerId","type":"uint256","indexed":true,"internalType":"uint256"},{"name":"dataHash","type":"bytes32","indexed":true,"internalType":"bytes32"}],"anonymous":false},{"type":"event","name":"ValidationResponse","inputs":[{"name":"agentValidatorId","type":"uint256","indexed":true,"internalType":"uint256"},{"name":"agentServerId","type":"uint256","indexed":true,"internalType":"uint256"},{"name":"dataHash","type":"bytes32","indexed":true,"internalType":"bytes32"},{"name":"response","type":"uint8","indexed":false,"internalType":"uint8"}],"anonymous":false},{"type":"error","name":"AgentNotFound","inputs":[{"name":"agentId","type":"uint256","internalType":"uint256"}]},{"type":"error","name":"AlreadyRequested","inputs":[{"name":"agentValidatorId","type":"uint256","internalType":"uint256"},{"name":"agentServerId","type":"uint256","internalType":"uint256"},{"name":"dataHash","type":"bytes32","internalType":"bytes32"}]},{"type":"error","name":"AlreadyResponded","inputs":[{"name":"agentValidatorId","type":"uint256","internalType":"uint256"},{"name":"agentServerId","type":"uint256","internalType":"uint256"},{"name":"dataHash","type":"bytes32","internalType":"bytes32"}]},{"type":"error","name":"InvalidIdentityRegistryAddress","inputs":[]},{"type":"error","name":"InvalidResponse","inputs":[{"name":"response","type":"uint8","internalType":"uint8"},{"name":"minResponse","type":"uint8","internalType":"uint8"},{"name":"maxResponse","type":"uint8","internalType":"uint8"}]},{"type":"error","name":"RequestExpired","inputs":[{"name":"dataHash","type":"bytes32","internalType":"bytes32"},{"name":"currentTime","type":"uint256","internalType":"uint256"},{"name":"expiresAt","type":"uint256","internalType":"uint256"}]},{"type":"error","name":"RequestNotFound","inputs":[{"name":"dataHash","type":"bytes32","internalType":"bytes32"}]},{"type":"error","name":"Unauthorized","inputs":[{"name":"caller","type":"address","internalType":"address"},{"name":"expected","type":"address","internalType":"address"}]}],"bytecode":{"object":"0x60a060405234801561000f575f5ffd5b50604051610f97380380610f9783398181016040528101906100319190610168565b5f73ffffffffffffffffffffffffffffffffffffffff168273ffffffffffffffffffffffffffffffffffffffff1603610096576040517f28123ecf00000000000000000000000000000000000000000000000000000000815260040160405180910390fd5b8173ffffffffffffffffffffffffffffffffffffffff1660808173ffffffffffffffffffffffffffffffffffffffff1681525050805f8190555050506101a6565b5f5ffd5b5f73ffffffffffffffffffffffffffffffffffffffff82169050919050565b5f610104826100db565b9050919050565b610114816100fa565b811461011e575f5ffd5b50565b5f8151905061012f8161010b565b92915050565b5f819050919050565b61014781610135565b8114610151575f5ffd5b50565b5f815190506101628161013e565b92915050565b5f5f6040838503121561017e5761017d6100d7565b5b5f61018b85828601610121565b925050602061019c85828601610154565b9150509250929050565b608051610dc56101d25f395f818160c4015281816101a2015281816104a401526105b40152610dc55ff3fe608060405234801561000f575f5ffd5b506004361061004a575f3560e01c8063134e18f41461004e5780634146624a1461006c5780634e8b1dd5146100885780639748c8cb146100a6575b5f5ffd5b6100566100c2565b6040516100639190610825565b60405180910390f35b610086600480360381019061008191906108b8565b6100e6565b005b610090610436565b60405161009d919061090e565b60405180910390f35b6100c060048036038101906100bb9190610951565b61043b565b005b7f000000000000000000000000000000000000000000000000000000000000000081565b5f60015f8481526020019081526020015f2090505f815f01540361014157826040517f1a38706200000000000000000000000000000000000000000000000000000000815260040161013891906109b0565b60405180910390fd5b806003015f9054906101000a900460ff161561019f57805f01548160010154846040517fb578bda8000000000000000000000000000000000000000000000000000000008152600401610196939291906109c9565b60405180910390fd5b5f7f000000000000000000000000000000000000000000000000000000000000000073ffffffffffffffffffffffffffffffffffffffff16632de5aaf7835f01546040518263ffffffff1660e01b81526004016101fc919061090e565b5f60405180830381865afa158015610216573d5f5f3e3d5ffd5b505050506040513d5f823e3d601f19601f8201168201806040525081019061023e9190610b89565b925050505f73ffffffffffffffffffffffffffffffffffffffff168173ffffffffffffffffffffffffffffffffffffffff16036102b557815f01546040517f0ede97590000000000000000000000000000000000000000000000000000000081526004016102ac919061090e565b60405180910390fd5b8073ffffffffffffffffffffffffffffffffffffffff163373ffffffffffffffffffffffffffffffffffffffff16146103275733816040517f295a81c100000000000000000000000000000000000000000000000000000000815260040161031e929190610c04565b60405180910390fd5b816002015442111561037857834283600201546040517f737dbfab00000000000000000000000000000000000000000000000000000000815260040161036f93929190610c2b565b60405180910390fd5b5f8360ff16108061038c575060648360ff16115b156103d357825f60646040517f1170887a0000000000000000000000000000000000000000000000000000000081526004016103ca93929190610ce1565b60405180910390fd5b6001826003015f6101000a81548160ff021916908315150217905550838260010154835f01547f2ba5437896d7ada24fee1c73f4463485d299e02cd7f3f0fc1abf6cbad5890b57866040516104289190610d16565b60405180910390a450505050565b5f5481565b5f60015f8381526020019081526020015f2090505f815f0154146104a157805f01548160010154836040517f2b77e07d000000000000000000000000000000000000000000000000000000008152600401610498939291906109c9565b60405180910390fd5b5f7f000000000000000000000000000000000000000000000000000000000000000073ffffffffffffffffffffffffffffffffffffffff16632de5aaf7866040518263ffffffff1660e01b81526004016104fb919061090e565b5f60405180830381865afa158015610515573d5f5f3e3d5ffd5b505050506040513d5f823e3d601f19601f8201168201806040525081019061053d9190610b89565b925050505f73ffffffffffffffffffffffffffffffffffffffff168173ffffffffffffffffffffffffffffffffffffffff16036105b157846040517f0ede97590000000000000000000000000000000000000000000000000000000081526004016105a8919061090e565b60405180910390fd5b5f7f000000000000000000000000000000000000000000000000000000000000000073ffffffffffffffffffffffffffffffffffffffff16632de5aaf7866040518263ffffffff1660e01b815260040161060b919061090e565b5f60405180830381865afa158015610625573d5f5f3e3d5ffd5b505050506040513d5f823e3d601f19601f8201168201806040525081019061064d9190610b89565b925050505f73ffffffffffffffffffffffffffffffffffffffff168173ffffffffffffffffffffffffffffffffffffffff16036106c157846040517f0ede97590000000000000000000000000000000000000000000000000000000081526004016106b8919061090e565b60405180910390fd5b8073ffffffffffffffffffffffffffffffffffffffff163373ffffffffffffffffffffffffffffffffffffffff16146107335733816040517f295a81c100000000000000000000000000000000000000000000000000000000815260040161072a929190610c04565b60405180910390fd5b85835f01819055508483600101819055505f54426107519190610d5c565b83600201819055505f836003015f6101000a81548160ff0219169083151502179055508385877f12d3aa778085fe939928a17bfa73785c2df398b0acfcb54111df351095d3db5d60405160405180910390a4505050505050565b5f73ffffffffffffffffffffffffffffffffffffffff82169050919050565b5f819050919050565b5f6107ed6107e86107e3846107ab565b6107ca565b6107ab565b9050919050565b5f6107fe826107d3565b9050919050565b5f61080f826107f4565b9050919050565b61081f81610805565b82525050565b5f6020820190506108385f830184610816565b92915050565b5f604051905090565b5f5ffd5b5f5ffd5b5f819050919050565b6108618161084f565b811461086b575f5ffd5b50565b5f8135905061087c81610858565b92915050565b5f60ff82169050919050565b61089781610882565b81146108a1575f5ffd5b50565b5f813590506108b28161088e565b92915050565b5f5f604083850312156108ce576108cd610847565b5b5f6108db8582860161086e565b92505060206108ec858286016108a4565b9150509250929050565b5f819050919050565b610908816108f6565b82525050565b5f6020820190506109215f8301846108ff565b92915050565b610930816108f6565b811461093a575f5ffd5b50565b5f8135905061094b81610927565b92915050565b5f5f5f6060848603121561096857610967610847565b5b5f6109758682870161093d565b93505060206109868682870161093d565b92505060406109978682870161086e565b9150509250925092565b6109aa8161084f565b82525050565b5f6020820190506109c35f8301846109a1565b92915050565b5f6060820190506109dc5f8301866108ff565b6109e960208301856108ff565b6109f660408301846109a1565b949350505050565b5f81519050610a0c81610927565b92915050565b5f5ffd5b5f5ffd5b5f601f19601f8301169050919050565b7f4e487b71000000000000000000000000000000000000000000000000000000005f52604160045260245ffd5b610a6082610a1a565b810181811067ffffffffffffffff82111715610a7f57610a7e610a2a565b5b80604052505050565b5f610a9161083e565b9050610a9d8282610a57565b919050565b5f67ffffffffffffffff821115610abc57610abb610a2a565b5b610ac582610a1a565b9050602081019050919050565b8281835e5f83830152505050565b5f610af2610aed84610aa2565b610a88565b905082815260208101848484011115610b0e57610b0d610a16565b5b610b19848285610ad2565b509392505050565b5f82601f830112610b3557610b34610a12565b5b8151610b45848260208601610ae0565b91505092915050565b5f610b58826107ab565b9050919050565b610b6881610b4e565b8114610b72575f5ffd5b50565b5f81519050610b8381610b5f565b92915050565b5f5f5f60608486031215610ba057610b9f610847565b5b5f610bad868287016109fe565b935050602084015167ffffffffffffffff811115610bce57610bcd61084b565b5b610bda86828701610b21565b9250506040610beb86828701610b75565b9150509250925092565b610bfe81610b4e565b82525050565b5f604082019050610c175f830185610bf5565b610c246020830184610bf5565b9392505050565b5f606082019050610c3e5f8301866109a1565b610c4b60208301856108ff565b610c5860408301846108ff565b949350505050565b610c6981610882565b82525050565b5f819050919050565b5f610c92610c8d610c8884610c6f565b6107ca565b610882565b9050919050565b610ca281610c78565b82525050565b5f819050919050565b5f610ccb610cc6610cc184610ca8565b6107ca565b610882565b9050919050565b610cdb81610cb1565b82525050565b5f606082019050610cf45f830186610c60565b610d016020830185610c99565b610d0e6040830184610cd2565b949350505050565b5f602082019050610d295f830184610c60565b92915050565b7f4e487b71000000000000000000000000000000000000000000000000000000005f52601160045260245ffd5b5f610d66826108f6565b9150610d71836108f6565b9250828201905080821115610d8957610d88610d2f565b5b9291505056fea2646970667358221220f2b5cb92b52624572329904418655a28dd21a14340e3798aa61811464140936e64736f6c634300081e0033","linkReferences":{}},"methodIdentifiers":{"identityRegistry()":"134e18f4","ttl()":"4e8b1dd5","validationRequest(uint256,uint256,bytes32)":"9748c8cb","validationResponse(bytes32,uint8)":"4146624a"},"id":21}